:100000000C942A000C943C000C943C000C943C0092
:100010000C943C000C943C000C943C000C943C0070
:100020000C943C000C943C000C94B8010C941C0102
:100030000C9451010C9447010C943C000C943C002E
:100040000C943C000C943C000C943C000C943C0040
:100050000C943C0011241FBECFE5D4E0DEBFCDBF21
:1000600010E0A0E6B0E001C01D92A73BB107E1F7A8
:100070000E9406010C9452020C94000007C085B740
:100080008F7485BF85B7806485BF889581E690E0D1
:100090000E949B01882399F380916100089507C015
:1000A00085B78F7485BF85B7806485BF889580E6E6
:1000B00090E00E942502892B99F3809160000895B9
:1000C0000F931F93CF93DF938091AF000E947F0126
:1000D0008091B0000E947F018091B000882381F060
:1000E00001EB10E0C0E0D0E0F80181918F010E94A7
:1000F0007F0121968091B00090E0C817D907A4F342
:10010000DF91CF911F910F910895EF92FF920F937E
:100110001F93CF93DF9301EB10E085EBE82E80E097
:10012000F82EE801899190E00E94000280E0C53B32
:10013000D807C1F70E944F00F80181938F01EE1696
:10014000FF06C1F7DF91CF911F910F91FF90EF90C4
:100150000C9460008091B000813009F00895809186
:10016000B100811102C0C1980895C19A089580918B
:10017000AF00823099F0833059F0813009F0089552
:100180008091B0008130D9F78091B1008BBB089588
:100190008091B000843099F70C9485000C94AA00EB
:1001A0000F931F93CF93DF930E943E008093AF0085
:1001B0000E943E008093B0008730C0F4882381F015
:1001C00001EB10E0C0E0D0E00E943E00F801819316
:1001D0008F0121968091B00090E0C817D907A4F351
:1001E000DF91CF911F910F910C94B700C0E0D0E048
:1001F0000E943E0021968091B00090E0C817D90778
:10020000BCF3DF91CF911F910F91089582EB87BBD3
:1002100083ED8DB90E9442021BB888EF8AB986E847
:1002200080BD10BC83E389B98FEF8ABB84BB8BBBD5
:1002300085BB0E94D000FDCF1F920F920FB60F9288
:1002400011242F938F939F93EF93FF9380916500D9
:10025000803198F4E091660091E09E0F90936600E3
:100260002CB1FF27E7FDF095E858FF4F20839F70E2
:10027000909366008F5F80936500FF91EF919F914F
:100280008F912F910F900FBE0F901F9018951F9276
:100290000F920FB60F9211240F900FBE0F901F9068
:1002A00018951F920F920FB60F9211248F93EF9310
:1002B000FF93809162001816D4F4E091640081E00D
:1002C0008E0F80936400FF27E7FDF095E859FF4FFC
:1002D00080818CB9809164008F70809364008091DC
:1002E0006200815080936200811101C05598FF9196
:1002F000EF918F910F900FBE0F901F901895F8946B
:10030000209162002031A0F490916300E92FFF2733
:10031000E7FDF095E859FF4F80839F5F9F709093B2
:1003200063002F5F20936200559A81E078940895CE
:1003300080E078940895DC01F8942091650012160D
:10034000A4F490916700E92FFF27E7FDF095E858A6
:10035000FF4F80818C939F5F9F7090936700215027
:100360002093650081E07894089580E07894089562
:100370001F920F920FB60F9211242F938F939F937A
:10038000EF93FF932FB1809189001816ACF5E0919F
:100390008B0081E08E0F80938B00FF27E7FDF095A7
:1003A000E157FF4F80818FB980918B008F708093D0
:1003B0008B008091890081508093890090918C00FE
:1003C000903180F480918D00E82FFF27E7FDF095B4
:1003D000E156FF4F20838F5F8F7080938D009F5F6A
:1003E00090938C00FF91EF919F918F912F910F909F
:1003F0000FBE0F901F90189581E080938800DECF8C
:10040000F894909189009031E8F4209188002111AE
:1004100013C020918A00E22FFF27E7FDF095E157F6
:10042000FF4F80832F5F2F7020938A009F5F9093F0
:10043000890081E0789408958FB91092880081E056
:100440007894089580E078940895DC01F8942091E0
:100450008C001216A4F490918E00E92FFF27E7FD7F
:10046000F095E156FF4F80818C939F5F9F70909332
:100470008E00215020938C0081E07894089580E0D4
:100480007894089510928E0010928D0010928C0036
:1004900010928B0010928A001092890081E0809364
:0804A00088000895F894FFCFD5
:00000001FF
